{
  "_format": "hh-sol-artifact-1",
  "contractName": "NFTMarketplace",
  "sourceName": "contracts/NFTMarketplace.sol",
  "abi": [
    {
      "inputs": [],
      "stateMutability": "nonpayable",
      "type": "constructor"
    },
    {
      "anonymous": false,
      "inputs": [
        {
          "indexed": true,
          "internalType": "address",
          "name": "owner",
          "type": "address"
        },
        {
          "indexed": true,
          "internalType": "address",
          "name": "approved",
          "type": "address"
        },
        {
          "indexed": true,
          "internalType": "uint256",
          "name": "tokenId",
          "type": "uint256"
        }
      ],
      "name": "Approval",
      "type": "event"
    },
    {
      "anonymous": false,
      "inputs": [
        {
          "indexed": true,
          "internalType": "address",
          "name": "owner",
          "type": "address"
        },
        {
          "indexed": true,
          "internalType": "address",
          "name": "operator",
          "type": "address"
        },
        {
          "indexed": false,
          "internalType": "bool",
          "name": "approved",
          "type": "bool"
        }
      ],
      "name": "ApprovalForAll",
      "type": "event"
    },
    {
      "anonymous": false,
      "inputs": [
        {
          "indexed": true,
          "internalType": "address",
          "name": "previousOwner",
          "type": "address"
        },
        {
          "indexed": true,
          "internalType": "address",
          "name": "newOwner",
          "type": "address"
        }
      ],
      "name": "OwnershipTransferred",
      "type": "event"
    },
    {
      "anonymous": false,
      "inputs": [
        {
          "indexed": true,
          "internalType": "address",
          "name": "from",
          "type": "address"
        },
        {
          "indexed": true,
          "internalType": "address",
          "name": "to",
          "type": "address"
        },
        {
          "indexed": true,
          "internalType": "uint256",
          "name": "tokenId",
          "type": "uint256"
        }
      ],
      "name": "Transfer",
      "type": "event"
    },
    {
      "inputs": [
        {
          "internalType": "address",
          "name": "to",
          "type": "address"
        },
        {
          "internalType": "uint256",
          "name": "tokenId",
          "type": "uint256"
        }
      ],
      "name": "approve",
      "outputs": [],
      "stateMutability": "nonpayable",
      "type": "function"
    },
    {
      "inputs": [
        {
          "internalType": "address",
          "name": "owner",
          "type": "address"
        }
      ],
      "name": "balanceOf",
      "outputs": [
        {
          "internalType": "uint256",
          "name": "",
          "type": "uint256"
        }
      ],
      "stateMutability": "view",
      "type": "function"
    },
    {
      "inputs": [
        {
          "internalType": "string",
          "name": "_cid",
          "type": "string"
        },
        {
          "internalType": "uint256",
          "name": "_price",
          "type": "uint256"
        },
        {
          "internalType": "bool",
          "name": "_isListed",
          "type": "bool"
        }
      ],
      "name": "createItem",
      "outputs": [
        {
          "internalType": "uint256",
          "name": "",
          "type": "uint256"
        }
      ],
      "stateMutability": "nonpayable",
      "type": "function"
    },
    {
      "inputs": [
        {
          "internalType": "uint256",
          "name": "tokenId",
          "type": "uint256"
        }
      ],
      "name": "deListItem",
      "outputs": [],
      "stateMutability": "nonpayable",
      "type": "function"
    },
    {
      "inputs": [],
      "name": "drainContract",
      "outputs": [],
      "stateMutability": "nonpayable",
      "type": "function"
    },
    {
      "inputs": [
        {
          "internalType": "address",
          "name": "_ownerAddr",
          "type": "address"
        }
      ],
      "name": "getAllItems",
      "outputs": [
        {
          "internalType": "uint256[]",
          "name": "",
          "type": "uint256[]"
        }
      ],
      "stateMutability": "view",
      "type": "function"
    },
    {
      "inputs": [
        {
          "internalType": "uint256",
          "name": "tokenId",
          "type": "uint256"
        }
      ],
      "name": "getApproved",
      "outputs": [
        {
          "internalType": "address",
          "name": "",
          "type": "address"
        }
      ],
      "stateMutability": "view",
      "type": "function"
    },
    {
      "inputs": [
        {
          "internalType": "address",
          "name": "owner",
          "type": "address"
        },
        {
          "internalType": "address",
          "name": "operator",
          "type": "address"
        }
      ],
      "name": "isApprovedForAll",
      "outputs": [
        {
          "internalType": "bool",
          "name": "",
          "type": "bool"
        }
      ],
      "stateMutability": "view",
      "type": "function"
    },
    {
      "inputs": [
        {
          "internalType": "uint256",
          "name": "tokenId",
          "type": "uint256"
        }
      ],
      "name": "listItem",
      "outputs": [],
      "stateMutability": "payable",
      "type": "function"
    },
    {
      "inputs": [],
      "name": "listingFees",
      "outputs": [
        {
          "internalType": "uint256",
          "name": "",
          "type": "uint256"
        }
      ],
      "stateMutability": "view",
      "type": "function"
    },
    {
      "inputs": [],
      "name": "name",
      "outputs": [
        {
          "internalType": "string",
          "name": "",
          "type": "string"
        }
      ],
      "stateMutability": "view",
      "type": "function"
    },
    {
      "inputs": [],
      "name": "owner",
      "outputs": [
        {
          "internalType": "address",
          "name": "",
          "type": "address"
        }
      ],
      "stateMutability": "view",
      "type": "function"
    },
    {
      "inputs": [
        {
          "internalType": "uint256",
          "name": "tokenId",
          "type": "uint256"
        }
      ],
      "name": "ownerOf",
      "outputs": [
        {
          "internalType": "address",
          "name": "",
          "type": "address"
        }
      ],
      "stateMutability": "view",
      "type": "function"
    },
    {
      "inputs": [],
      "name": "renounceOwnership",
      "outputs": [],
      "stateMutability": "nonpayable",
      "type": "function"
    },
    {
      "inputs": [
        {
          "internalType": "uint256",
          "name": "_tokenId",
          "type": "uint256"
        }
      ],
      "name": "returnItem",
      "outputs": [
        {
          "internalType": "uint256",
          "name": "",
          "type": "uint256"
        },
        {
          "internalType": "string",
          "name": "",
          "type": "string"
        },
        {
          "internalType": "uint256",
          "name": "",
          "type": "uint256"
        },
        {
          "internalType": "bool",
          "name": "",
          "type": "bool"
        }
      ],
      "stateMutability": "view",
      "type": "function"
    },
    {
      "inputs": [
        {
          "internalType": "address",
          "name": "to",
          "type": "address"
        }
      ],
      "name": "safeMint",
      "outputs": [
        {
          "internalType": "uint256",
          "name": "",
          "type": "uint256"
        }
      ],
      "stateMutability": "nonpayable",
      "type": "function"
    },
    {
      "inputs": [
        {
          "internalType": "address",
          "name": "from",
          "type": "address"
        },
        {
          "internalType": "address",
          "name": "to",
          "type": "address"
        },
        {
          "internalType": "uint256",
          "name": "tokenId",
          "type": "uint256"
        }
      ],
      "name": "safeTransferFrom",
      "outputs": [],
      "stateMutability": "nonpayable",
      "type": "function"
    },
    {
      "inputs": [
        {
          "internalType": "address",
          "name": "from",
          "type": "address"
        },
        {
          "internalType": "address",
          "name": "to",
          "type": "address"
        },
        {
          "internalType": "uint256",
          "name": "tokenId",
          "type": "uint256"
        },
        {
          "internalType": "bytes",
          "name": "data",
          "type": "bytes"
        }
      ],
      "name": "safeTransferFrom",
      "outputs": [],
      "stateMutability": "nonpayable",
      "type": "function"
    },
    {
      "inputs": [
        {
          "internalType": "address",
          "name": "operator",
          "type": "address"
        },
        {
          "internalType": "bool",
          "name": "approved",
          "type": "bool"
        }
      ],
      "name": "setApprovalForAll",
      "outputs": [],
      "stateMutability": "nonpayable",
      "type": "function"
    },
    {
      "inputs": [
        {
          "internalType": "bytes4",
          "name": "interfaceId",
          "type": "bytes4"
        }
      ],
      "name": "supportsInterface",
      "outputs": [
        {
          "internalType": "bool",
          "name": "",
          "type": "bool"
        }
      ],
      "stateMutability": "view",
      "type": "function"
    },
    {
      "inputs": [],
      "name": "symbol",
      "outputs": [
        {
          "internalType": "string",
          "name": "",
          "type": "string"
        }
      ],
      "stateMutability": "view",
      "type": "function"
    },
    {
      "inputs": [
        {
          "internalType": "uint256",
          "name": "index",
          "type": "uint256"
        }
      ],
      "name": "tokenByIndex",
      "outputs": [
        {
          "internalType": "uint256",
          "name": "",
          "type": "uint256"
        }
      ],
      "stateMutability": "view",
      "type": "function"
    },
    {
      "inputs": [
        {
          "internalType": "address",
          "name": "owner",
          "type": "address"
        },
        {
          "internalType": "uint256",
          "name": "index",
          "type": "uint256"
        }
      ],
      "name": "tokenOfOwnerByIndex",
      "outputs": [
        {
          "internalType": "uint256",
          "name": "",
          "type": "uint256"
        }
      ],
      "stateMutability": "view",
      "type": "function"
    },
    {
      "inputs": [
        {
          "internalType": "uint256",
          "name": "tokenId",
          "type": "uint256"
        }
      ],
      "name": "tokenURI",
      "outputs": [
        {
          "internalType": "string",
          "name": "",
          "type": "string"
        }
      ],
      "stateMutability": "view",
      "type": "function"
    },
    {
      "inputs": [],
      "name": "totalSupply",
      "outputs": [
        {
          "internalType": "uint256",
          "name": "",
          "type": "uint256"
        }
      ],
      "stateMutability": "view",
      "type": "function"
    },
    {
      "inputs": [
        {
          "internalType": "uint256",
          "name": "tokenId",
          "type": "uint256"
        }
      ],
      "name": "transfer",
      "outputs": [],
      "stateMutability": "payable",
      "type": "function"
    },
    {
      "inputs": [
        {
          "internalType": "address",
          "name": "from",
          "type": "address"
        },
        {
          "internalType": "address",
          "name": "to",
          "type": "address"
        },
        {
          "internalType": "uint256",
          "name": "tokenId",
          "type": "uint256"
        }
      ],
      "name": "transferFrom",
      "outputs": [],
      "stateMutability": "nonpayable",
      "type": "function"
    },
    {
      "inputs": [
        {
          "internalType": "address",
          "name": "newOwner",
          "type": "address"
        }
      ],
      "name": "transferOwnership",
      "outputs": [],
      "stateMutability": "nonpayable",
      "type": "function"
    },
    {
      "inputs": [
        {
          "internalType": "uint256",
          "name": "_newListingFees",
          "type": "uint256"
        }
      ],
      "name": "updateListingFees",
      "outputs": [],
      "stateMutability": "nonpayable",
      "type": "function"
    }
  ],
  "bytecode": "0x60806040526064600c553480156200001657600080fd5b506040518060400160405280600881526020017f4e6674546f6b656e0000000000000000000000000000000000000000000000008152506040518060400160405280600481526020017f4e46546b00000000000000000000000000000000000000000000000000000000815250816000908162000094919062000417565b508060019081620000a6919062000417565b505050620000c9620000bd620000cf60201b60201c565b620000d760201b60201c565b620004fe565b600033905090565b6000600a60009054906101000a900473ffffffffffffffffffffffffffffffffffffffff16905081600a60006101000a81548173ffffffffffffffffffffffffffffffffffffffff021916908373ffffffffffffffffffffffffffffffffffffffff1602179055508173ffffffffffffffffffffffffffffffffffffffff168173ffffffffffffffffffffffffffffffffffffffff167f8be0079c531659141344cd1fd0a4f28419497f9722a3daafe3b4186f6b6457e060405160405180910390a35050565b600081519050919050565b7f4e487b7100000000000000000000000000000000000000000000000000000000600052604160045260246000fd5b7f4e487b7100000000000000000000000000000000000000000000000000000000600052602260045260246000fd5b600060028204905060018216806200021f57607f821691505b602082108103620002355762000234620001d7565b5b50919050565b60008190508160005260206000209050919050565b60006020601f8301049050919050565b600082821b905092915050565b6000600883026200029f7fffffffffffffffffffffffffffffffffffffffffffffffffffffffffffffffff8262000260565b620002ab868362000260565b95508019841693508086168417925050509392505050565b6000819050919050565b6000819050919050565b6000620002f8620002f2620002ec84620002c3565b620002cd565b620002c3565b9050919050565b6000819050919050565b6200031483620002d7565b6200032c6200032382620002ff565b8484546200026d565b825550505050565b600090565b6200034362000334565b6200035081848462000309565b505050565b5b8181101562000378576200036c60008262000339565b60018101905062000356565b5050565b601f821115620003c75762000391816200023b565b6200039c8462000250565b81016020851015620003ac578190505b620003c4620003bb8562000250565b83018262000355565b50505b505050565b600082821c905092915050565b6000620003ec60001984600802620003cc565b1980831691505092915050565b6000620004078383620003d9565b9150826002028217905092915050565b62000422826200019d565b67ffffffffffffffff8111156200043e576200043d620001a8565b5b6200044a825462000206565b620004578282856200037c565b600060209050601f8311600181146200048f57600084156200047a578287015190505b620004868582620003f9565b865550620004f6565b601f1984166200049f866200023b565b60005b82811015620004c957848901518255600182019150602085019450602081019050620004a2565b86831015620004e95784890151620004e5601f891682620003d9565b8355505b6001600288020188555050505b505050505050565b61439a806200050e6000396000f3fe6080604052600436106101c25760003560e01c80635d7e2655116100f7578063a22cb46511610095578063e4ab9e7b11610064578063e4ab9e7b1461065f578063e985e9c514610688578063f2fde38b146106c5578063f99a5388146106ee576101c2565b8063a22cb465146105b9578063b88d4fde146105e2578063c87b56dd1461060b578063d0360e5914610648576101c2565b8063715018a6116100d1578063715018a61461050f5780638da5cb5b1461052657806395d89b4114610551578063a07b281e1461057c576101c2565b80635d7e26551461046a5780636352211e1461049557806370a08231146104d2576101c2565b806323b872dd1161016457806340d097c31161013e57806340d097c31461039e57806342842e0e146103db5780634f6ccce7146104045780635bf13e5514610441576101c2565b806323b872dd1461031c5780632ce38190146103455780632f745c5914610361576101c2565b8063095ea7b3116101a0578063095ea7b31461026c57806312514bba1461029557806318160ddd146102b1578063223ed1dd146102dc576101c2565b806301ffc9a7146101c757806306fdde0314610204578063081812fc1461022f575b600080fd5b3480156101d357600080fd5b506101ee60048036038101906101e99190612b97565b61072b565b6040516101fb9190612bdf565b60405180910390f35b34801561021057600080fd5b5061021961073d565b6040516102269190612c8a565b60405180910390f35b34801561023b57600080fd5b5061025660048036038101906102519190612ce2565b6107cf565b6040516102639190612d50565b60405180910390f35b34801561027857600080fd5b50610293600480360381019061028e9190612d97565b610815565b005b6102af60048036038101906102aa9190612ce2565b61092c565b005b3480156102bd57600080fd5b506102c6610ab2565b6040516102d39190612de6565b60405180910390f35b3480156102e857600080fd5b5061030360048036038101906102fe9190612ce2565b610abf565b6040516103139493929190612e01565b60405180910390f35b34801561032857600080fd5b50610343600480360381019061033e9190612e4d565b610bc9565b005b61035f600480360381019061035a9190612ce2565b610c29565b005b34801561036d57600080fd5b5061038860048036038101906103839190612d97565b610d31565b6040516103959190612de6565b60405180910390f35b3480156103aa57600080fd5b506103c560048036038101906103c09190612ea0565b610dd6565b6040516103d29190612de6565b60405180910390f35b3480156103e757600080fd5b5061040260048036038101906103fd9190612e4d565b610e02565b005b34801561041057600080fd5b5061042b60048036038101906104269190612ce2565b610e22565b6040516104389190612de6565b60405180910390f35b34801561044d57600080fd5b5061046860048036038101906104639190612ce2565b610e93565b005b34801561047657600080fd5b5061047f610ea5565b60405161048c9190612de6565b60405180910390f35b3480156104a157600080fd5b506104bc60048036038101906104b79190612ce2565b610eab565b6040516104c99190612d50565b60405180910390f35b3480156104de57600080fd5b506104f960048036038101906104f49190612ea0565b610f31565b6040516105069190612de6565b60405180910390f35b34801561051b57600080fd5b50610524610fe8565b005b34801561053257600080fd5b5061053b610ffc565b6040516105489190612d50565b60405180910390f35b34801561055d57600080fd5b50610566611026565b6040516105739190612c8a565b60405180910390f35b34801561058857600080fd5b506105a3600480360381019061059e919061302e565b6110b8565b6040516105b09190612de6565b60405180910390f35b3480156105c557600080fd5b506105e060048036038101906105db919061309d565b611154565b005b3480156105ee57600080fd5b506106096004803603810190610604919061317e565b61116a565b005b34801561061757600080fd5b50610632600480360381019061062d9190612ce2565b6111cc565b60405161063f9190612c8a565b60405180910390f35b34801561065457600080fd5b5061065d611234565b005b34801561066b57600080fd5b5061068660048036038101906106819190612ce2565b6112f2565b005b34801561069457600080fd5b506106af60048036038101906106aa9190613201565b611456565b6040516106bc9190612bdf565b60405180910390f35b3480156106d157600080fd5b506106ec60048036038101906106e79190612ea0565b6114ea565b005b3480156106fa57600080fd5b5061071560048036038101906107109190612ea0565b61156d565b60405161072291906132ff565b60405180910390f35b600061073682611623565b9050919050565b60606000805461074c90613350565b80601f016020809104026020016040519081016040528092919081815260200182805461077890613350565b80156107c55780601f1061079a576101008083540402835291602001916107c5565b820191906000526020600020905b8154815290600101906020018083116107a857829003601f168201915b5050505050905090565b60006107da8261169d565b6004600083815260200190815260200160002060009054906101000a900473ffffffffffffffffffffffffffffffffffffffff169050919050565b600061082082610eab565b90508073ffffffffffffffffffffffffffffffffffffffff168373ffffffffffffffffffffffffffffffffffffffff1603610890576040517f08c379a0000000000000000000000000000000000000000000000000000000008152600401610887906133f3565b60405180910390fd5b8073ffffffffffffffffffffffffffffffffffffffff166108af6116e8565b73ffffffffffffffffffffffffffffffffffffffff1614806108de57506108dd816108d86116e8565b611456565b5b61091d576040517f08c379a000000000000000000000000000000000000000000000000000000000815260040161091490613485565b60405180910390fd5b61092783836116f0565b505050565b600d600082815260200190815260200160002060030160009054906101000a900460ff1661098f576040517f08c379a0000000000000000000000000000000000000000000000000000000008152600401610986906134f1565b60405180910390fd5b600d60008281526020019081526020016000206002015434146109e7576040517f08c379a00000000000000000000000000000000000000000000000000000000081526004016109de9061355d565b60405180910390fd5b60006109f282610eab565b73ffffffffffffffffffffffffffffffffffffffff1634604051610a15906135ae565b60006040518083038185875af1925050503d8060008114610a52576040519150601f19603f3d011682016040523d82523d6000602084013e610a57565b606091505b5050905080610a9b576040517f08c379a0000000000000000000000000000000000000000000000000000000008152600401610a929061360f565b60405180910390fd5b610aae610aa783610eab565b33846117a9565b5050565b6000600880549050905090565b60006060600080600d600086815260200190815260200160002060000154600d6000878152602001908152602001600020600101600d600088815260200190815260200160002060020154600d600089815260200190815260200160002060030160009054906101000a900460ff16828054610b3a90613350565b80601f0160208091040260200160405190810160405280929190818152602001828054610b6690613350565b8015610bb35780601f10610b8857610100808354040283529160200191610bb3565b820191906000526020600020905b815481529060010190602001808311610b9657829003601f168201915b5050505050925093509350935093509193509193565b610bda610bd46116e8565b82611aa2565b610c19576040517f08c379a0000000000000000000000000000000000000000000000000000000008152600401610c10906136a1565b60405180910390fd5b610c248383836117a9565b505050565b3373ffffffffffffffffffffffffffffffffffffffff16610c4982610eab565b73ffffffffffffffffffffffffffffffffffffffff1614610c9f576040517f08c379a0000000000000000000000000000000000000000000000000000000008152600401610c9690613733565b60405180910390fd5b600c543414610ce3576040517f08c379a0000000000000000000000000000000000000000000000000000000008152600401610cda9061379f565b60405180910390fd5b6001600d6000838152602001908152602001600020600201819055506001600d600083815260200190815260200160002060030160006101000a81548160ff02191690831515021790555050565b6000610d3c83610f31565b8210610d7d576040517f08c379a0000000000000000000000000000000000000000000000000000000008152600401610d7490613831565b60405180910390fd5b600660008473ffffffffffffffffffffffffffffffffffffffff1673ffffffffffffffffffffffffffffffffffffffff168152602001908152602001600020600083815260200190815260200160002054905092915050565b600080610de3600b611b37565b9050610def600b611b45565b610df98382611b5b565b80915050919050565b610e1d8383836040518060200160405280600081525061116a565b505050565b6000610e2c610ab2565b8210610e6d576040517f08c379a0000000000000000000000000000000000000000000000000000000008152600401610e64906138c3565b60405180910390fd5b60088281548110610e8157610e806138e3565b5b90600052602060002001549050919050565b610e9b611b79565b80600c8190555050565b600c5481565b600080610eb783611bf7565b9050600073ffffffffffffffffffffffffffffffffffffffff168173ffffffffffffffffffffffffffffffffffffffff1603610f28576040517f08c379a0000000000000000000000000000000000000000000000000000000008152600401610f1f9061395e565b60405180910390fd5b80915050919050565b60008073ffffffffffffffffffffffffffffffffffffffff168273ffffffffffffffffffffffffffffffffffffffff1603610fa1576040517f08c379a0000000000000000000000000000000000000000000000000000000008152600401610f98906139f0565b60405180910390fd5b600360008373ffffffffffffffffffffffffffffffffffffffff1673ffffffffffffffffffffffffffffffffffffffff168152602001908152602001600020549050919050565b610ff0611b79565b610ffa6000611c34565b565b6000600a60009054906101000a900473ffffffffffffffffffffffffffffffffffffffff16905090565b60606001805461103590613350565b80601f016020809104026020016040519081016040528092919081815260200182805461106190613350565b80156110ae5780601f10611083576101008083540402835291602001916110ae565b820191906000526020600020905b81548152906001019060200180831161109157829003601f168201915b5050505050905090565b6000806110c433610dd6565b90506040518060800160405280828152602001868152602001858152602001841515815250600d600083815260200190815260200160002060008201518160000155602082015181600101908161111b9190613bbc565b506040820151816002015560608201518160030160006101000a81548160ff021916908315150217905550905050809150509392505050565b61116661115f6116e8565b8383611cfa565b5050565b61117b6111756116e8565b83611aa2565b6111ba576040517f08c379a00000000000000000000000000000000000000000000000000000000081526004016111b1906136a1565b60405180910390fd5b6111c684848484611e66565b50505050565b60606111d78261169d565b60006111e1611ec2565b90506000815111611201576040518060200160405280600081525061122c565b8061120b84611ed9565b60405160200161121c929190613cca565b6040516020818303038152906040525b915050919050565b61123c611b79565b6000611246610ffc565b73ffffffffffffffffffffffffffffffffffffffff1647604051611269906135ae565b60006040518083038185875af1925050503d80600081146112a6576040519150601f19603f3d011682016040523d82523d6000602084013e6112ab565b606091505b50509050806112ef576040517f08c379a00000000000000000000000000000000000000000000000000000000081526004016112e69061360f565b60405180910390fd5b50565b3373ffffffffffffffffffffffffffffffffffffffff1661131282610eab565b73ffffffffffffffffffffffffffffffffffffffff16148061136657503373ffffffffffffffffffffffffffffffffffffffff1661134e610ffc565b73ffffffffffffffffffffffffffffffffffffffff16145b6113a5576040517f08c379a000000000000000000000000000000000000000000000000000000000815260040161139c90613733565b60405180910390fd5b600d600082815260200190815260200160002060030160009054906101000a900460ff16611408576040517f08c379a00000000000000000000000000000000000000000000000000000000081526004016113ff906134f1565b60405180910390fd5b6000600d6000838152602001908152602001600020600201819055506000600d600083815260200190815260200160002060030160006101000a81548160ff02191690831515021790555050565b6000600560008473ffffffffffffffffffffffffffffffffffffffff1673ffffffffffffffffffffffffffffffffffffffff16815260200190815260200160002060008373ffffffffffffffffffffffffffffffffffffffff1673ffffffffffffffffffffffffffffffffffffffff16815260200190815260200160002060009054906101000a900460ff16905092915050565b6114f2611b79565b600073ffffffffffffffffffffffffffffffffffffffff168173ffffffffffffffffffffffffffffffffffffffff1603611561576040517f08c379a000000000000000000000000000000000000000000000000000000000815260040161155890613d60565b60405180910390fd5b61156a81611c34565b50565b6060600061157a83610f31565b67ffffffffffffffff81111561159357611592612ed7565b5b6040519080825280602002602001820160405280156115c15781602001602082028036833780820191505090505b50905060005b6115d084610f31565b8110156116195760006115e38583610d31565b9050808383815181106115f9576115f86138e3565b5b60200260200101818152505050808061161190613daf565b9150506115c7565b5080915050919050565b60007f780e9d63000000000000000000000000000000000000000000000000000000007bffffffffffffffffffffffffffffffffffffffffffffffffffffffff1916827bffffffffffffffffffffffffffffffffffffffffffffffffffffffff19161480611696575061169582611fa7565b5b9050919050565b6116a681612089565b6116e5576040517f08c379a00000000000000000000000000000000000000000000000000000000081526004016116dc9061395e565b60405180910390fd5b50565b600033905090565b816004600083815260200190815260200160002060006101000a81548173ffffffffffffffffffffffffffffffffffffffff021916908373ffffffffffffffffffffffffffffffffffffffff160217905550808273ffffffffffffffffffffffffffffffffffffffff1661176383610eab565b73ffffffffffffffffffffffffffffffffffffffff167f8c5be1e5ebec7d5bd14f71427d1e84f3dd0314c0f7b2291e5b200ac8c7c3b92560405160405180910390a45050565b8273ffffffffffffffffffffffffffffffffffffffff166117c982610eab565b73ffffffffffffffffffffffffffffffffffffffff161461181f576040517f08c379a000000000000000000000000000000000000000000000000000000000815260040161181690613e69565b60405180910390fd5b600073ffffffffffffffffffffffffffffffffffffffff168273ffffffffffffffffffffffffffffffffffffffff160361188e576040517f08c379a000000000000000000000000000000000000000000000000000000000815260040161188590613efb565b60405180910390fd5b61189b83838360016120ca565b8273ffffffffffffffffffffffffffffffffffffffff166118bb82610eab565b73ffffffffffffffffffffffffffffffffffffffff1614611911576040517f08c379a000000000000000000000000000000000000000000000000000000000815260040161190890613e69565b60405180910390fd5b6004600082815260200190815260200160002060006101000a81549073ffffffffffffffffffffffffffffffffffffffff02191690556001600360008573ffffffffffffffffffffffffffffffffffffffff1673ffffffffffffffffffffffffffffffffffffffff168152602001908152602001600020600082825403925050819055506001600360008473ffffffffffffffffffffffffffffffffffffffff1673ffffffffffffffffffffffffffffffffffffffff16815260200190815260200160002060008282540192505081905550816002600083815260200190815260200160002060006101000a81548173ffffffffffffffffffffffffffffffffffffffff021916908373ffffffffffffffffffffffffffffffffffffffff160217905550808273ffffffffffffffffffffffffffffffffffffffff168473ffffffffffffffffffffffffffffffffffffffff167fddf252ad1be2c89b69c2b068fc378daa952ba7f163c4a11628f55a4df523b3ef60405160405180910390a4611a9d83838360016120dc565b505050565b600080611aae83610eab565b90508073ffffffffffffffffffffffffffffffffffffffff168473ffffffffffffffffffffffffffffffffffffffff161480611af05750611aef8185611456565b5b80611b2e57508373ffffffffffffffffffffffffffffffffffffffff16611b16846107cf565b73ffffffffffffffffffffffffffffffffffffffff16145b91505092915050565b600081600001549050919050565b6001816000016000828254019250508190555050565b611b758282604051806020016040528060008152506120e2565b5050565b611b816116e8565b73ffffffffffffffffffffffffffffffffffffffff16611b9f610ffc565b73ffffffffffffffffffffffffffffffffffffffff1614611bf5576040517f08c379a0000000000000000000000000000000000000000000000000000000008152600401611bec90613f67565b60405180910390fd5b565b60006002600083815260200190815260200160002060009054906101000a900473ffffffffffffffffffffffffffffffffffffffff169050919050565b6000600a60009054906101000a900473ffffffffffffffffffffffffffffffffffffffff16905081600a60006101000a81548173ffffffffffffffffffffffffffffffffffffffff021916908373ffffffffffffffffffffffffffffffffffffffff1602179055508173ffffffffffffffffffffffffffffffffffffffff168173ffffffffffffffffffffffffffffffffffffffff167f8be0079c531659141344cd1fd0a4f28419497f9722a3daafe3b4186f6b6457e060405160405180910390a35050565b8173ffffffffffffffffffffffffffffffffffffffff168373ffffffffffffffffffffffffffffffffffffffff1603611d68576040517f08c379a0000000000000000000000000000000000000000000000000000000008152600401611d5f90613fd3565b60405180910390fd5b80600560008573ffffffffffffffffffffffffffffffffffffffff1673ffffffffffffffffffffffffffffffffffffffff16815260200190815260200160002060008473ffffffffffffffffffffffffffffffffffffffff1673ffffffffffffffffffffffffffffffffffffffff16815260200190815260200160002060006101000a81548160ff0219169083151502179055508173ffffffffffffffffffffffffffffffffffffffff168373ffffffffffffffffffffffffffffffffffffffff167f17307eab39ab6107e8899845ad3d59bd9653f200f220920489ca2b5937696c3183604051611e599190612bdf565b60405180910390a3505050565b611e718484846117a9565b611e7d8484848461213d565b611ebc576040517f08c379a0000000000000000000000000000000000000000000000000000000008152600401611eb390614065565b60405180910390fd5b50505050565b606060405180602001604052806000815250905090565b606060006001611ee8846122c4565b01905060008167ffffffffffffffff811115611f0757611f06612ed7565b5b6040519080825280601f01601f191660200182016040528015611f395781602001600182028036833780820191505090505b509050600082602001820190505b600115611f9c578080600190039150507f3031323334353637383961626364656600000000000000000000000000000000600a86061a8153600a8581611f9057611f8f614085565b5b04945060008503611f47575b819350505050919050565b60007f80ac58cd000000000000000000000000000000000000000000000000000000007bffffffffffffffffffffffffffffffffffffffffffffffffffffffff1916827bffffffffffffffffffffffffffffffffffffffffffffffffffffffff1916148061207257507f5b5e139f000000000000000000000000000000000000000000000000000000007bffffffffffffffffffffffffffffffffffffffffffffffffffffffff1916827bffffffffffffffffffffffffffffffffffffffffffffffffffffffff1916145b80612082575061208182612417565b5b9050919050565b60008073ffffffffffffffffffffffffffffffffffffffff166120ab83611bf7565b73ffffffffffffffffffffffffffffffffffffffff1614159050919050565b6120d684848484612481565b50505050565b50505050565b6120ec83836125df565b6120f9600084848461213d565b612138576040517f08c379a000000000000000000000000000000000000000000000000000000000815260040161212f90614065565b60405180910390fd5b505050565b600061215e8473ffffffffffffffffffffffffffffffffffffffff166127fc565b156122b7578373ffffffffffffffffffffffffffffffffffffffff1663150b7a026121876116e8565b8786866040518563ffffffff1660e01b81526004016121a99493929190614109565b6020604051808303816000875af19250505080156121e557506040513d601f19601f820116820180604052508101906121e2919061416a565b60015b612267573d8060008114612215576040519150601f19603f3d011682016040523d82523d6000602084013e61221a565b606091505b50600081510361225f576040517f08c379a000000000000000000000000000000000000000000000000000000000815260040161225690614065565b60405180910390fd5b805181602001fd5b63150b7a0260e01b7bffffffffffffffffffffffffffffffffffffffffffffffffffffffff1916817bffffffffffffffffffffffffffffffffffffffffffffffffffffffff1916149150506122bc565b600190505b949350505050565b600080600090507a184f03e93ff9f4daa797ed6e38ed64bf6a1f0100000000000000008310612322577a184f03e93ff9f4daa797ed6e38ed64bf6a1f010000000000000000838161231857612317614085565b5b0492506040810190505b6d04ee2d6d415b85acef8100000000831061235f576d04ee2d6d415b85acef8100000000838161235557612354614085565b5b0492506020810190505b662386f26fc10000831061238e57662386f26fc10000838161238457612383614085565b5b0492506010810190505b6305f5e10083106123b7576305f5e10083816123ad576123ac614085565b5b0492506008810190505b61271083106123dc5761271083816123d2576123d1614085565b5b0492506004810190505b606483106123ff57606483816123f5576123f4614085565b5b0492506002810190505b600a831061240e576001810190505b80915050919050565b60007f01ffc9a7000000000000000000000000000000000000000000000000000000007bffffffffffffffffffffffffffffffffffffffffffffffffffffffff1916827bffffffffffffffffffffffffffffffffffffffffffffffffffffffff1916149050919050565b61248d8484848461281f565b60018111156124d1576040517f08c379a00000000000000000000000000000000000000000000000000000000081526004016124c890614209565b60405180910390fd5b6000829050600073ffffffffffffffffffffffffffffffffffffffff168573ffffffffffffffffffffffffffffffffffffffff16036125185761251381612825565b612557565b8373ffffffffffffffffffffffffffffffffffffffff168573ffffffffffffffffffffffffffffffffffffffff161461255657612555858261286e565b5b5b600073ffffffffffffffffffffffffffffffffffffffff168473ffffffffffffffffffffffffffffffffffffffff160361259957612594816129db565b6125d8565b8473ffffffffffffffffffffffffffffffffffffffff168473ffffffffffffffffffffffffffffffffffffffff16146125d7576125d68482612aac565b5b5b5050505050565b600073ffffffffffffffffffffffffffffffffffffffff168273ffffffffffffffffffffffffffffffffffffffff160361264e576040517f08c379a000000000000000000000000000000000000000000000000000000000815260040161264590614275565b60405180910390fd5b61265781612089565b15612697576040517f08c379a000000000000000000000000000000000000000000000000000000000815260040161268e906142e1565b60405180910390fd5b6126a56000838360016120ca565b6126ae81612089565b156126ee576040517f08c379a00000000000000000000000000000000000000000000000000000000081526004016126e5906142e1565b60405180910390fd5b6001600360008473ffffffffffffffffffffffffffffffffffffffff1673ffffffffffffffffffffffffffffffffffffffff16815260200190815260200160002060008282540192505081905550816002600083815260200190815260200160002060006101000a81548173ffffffffffffffffffffffffffffffffffffffff021916908373ffffffffffffffffffffffffffffffffffffffff160217905550808273ffffffffffffffffffffffffffffffffffffffff16600073ffffffffffffffffffffffffffffffffffffffff167fddf252ad1be2c89b69c2b068fc378daa952ba7f163c4a11628f55a4df523b3ef60405160405180910390a46127f86000838360016120dc565b5050565b6000808273ffffffffffffffffffffffffffffffffffffffff163b119050919050565b50505050565b6008805490506009600083815260200190815260200160002081905550600881908060018154018082558091505060019003906000526020600020016000909190919091505550565b6000600161287b84610f31565b6128859190614301565b905060006007600084815260200190815260200160002054905081811461296a576000600660008673ffffffffffffffffffffffffffffffffffffffff1673ffffffffffffffffffffffffffffffffffffffff168152602001908152602001600020600084815260200190815260200160002054905080600660008773ffffffffffffffffffffffffffffffffffffffff1673ffffffffffffffffffffffffffffffffffffffff168152602001908152602001600020600084815260200190815260200160002081905550816007600083815260200190815260200160002081905550505b6007600084815260200190815260200160002060009055600660008573ffffffffffffffffffffffffffffffffffffffff1673ffffffffffffffffffffffffffffffffffffffff16815260200190815260200160002060008381526020019081526020016000206000905550505050565b600060016008805490506129ef9190614301565b9050600060096000848152602001908152602001600020549050600060088381548110612a1f57612a1e6138e3565b5b906000526020600020015490508060088381548110612a4157612a406138e3565b5b906000526020600020018190555081600960008381526020019081526020016000208190555060096000858152602001908152602001600020600090556008805480612a9057612a8f614335565b5b6001900381819060005260206000200160009055905550505050565b6000612ab783610f31565b905081600660008573ffffffffffffffffffffffffffffffffffffffff1673ffffffffffffffffffffffffffffffffffffffff168152602001908152602001600020600083815260200190815260200160002081905550806007600084815260200190815260200160002081905550505050565b6000604051905090565b600080fd5b600080fd5b60007fffffffff0000000000000000000000000000000000000000000000000000000082169050919050565b612b7481612b3f565b8114612b7f57600080fd5b50565b600081359050612b9181612b6b565b92915050565b600060208284031215612bad57612bac612b35565b5b6000612bbb84828501612b82565b91505092915050565b60008115159050919050565b612bd981612bc4565b82525050565b6000602082019050612bf46000830184612bd0565b92915050565b600081519050919050565b600082825260208201905092915050565b60005b83811015612c34578082015181840152602081019050612c19565b60008484015250505050565b6000601f19601f8301169050919050565b6000612c5c82612bfa565b612c668185612c05565b9350612c76818560208601612c16565b612c7f81612c40565b840191505092915050565b60006020820190508181036000830152612ca48184612c51565b905092915050565b6000819050919050565b612cbf81612cac565b8114612cca57600080fd5b50565b600081359050612cdc81612cb6565b92915050565b600060208284031215612cf857612cf7612b35565b5b6000612d0684828501612ccd565b91505092915050565b600073ffffffffffffffffffffffffffffffffffffffff82169050919050565b6000612d3a82612d0f565b9050919050565b612d4a81612d2f565b82525050565b6000602082019050612d656000830184612d41565b92915050565b612d7481612d2f565b8114612d7f57600080fd5b50565b600081359050612d9181612d6b565b92915050565b60008060408385031215612dae57612dad612b35565b5b6000612dbc85828601612d82565b9250506020612dcd85828601612ccd565b9150509250929050565b612de081612cac565b82525050565b6000602082019050612dfb6000830184612dd7565b92915050565b6000608082019050612e166000830187612dd7565b8181036020830152612e288186612c51565b9050612e376040830185612dd7565b612e446060830184612bd0565b95945050505050565b600080600060608486031215612e6657612e65612b35565b5b6000612e7486828701612d82565b9350506020612e8586828701612d82565b9250506040612e9686828701612ccd565b9150509250925092565b600060208284031215612eb657612eb5612b35565b5b6000612ec484828501612d82565b91505092915050565b600080fd5b600080fd5b7f4e487b7100000000000000000000000000000000000000000000000000000000600052604160045260246000fd5b612f0f82612c40565b810181811067ffffffffffffffff82111715612f2e57612f2d612ed7565b5b80604052505050565b6000612f41612b2b565b9050612f4d8282612f06565b919050565b600067ffffffffffffffff821115612f6d57612f6c612ed7565b5b612f7682612c40565b9050602081019050919050565b82818337600083830152505050565b6000612fa5612fa084612f52565b612f37565b905082815260208101848484011115612fc157612fc0612ed2565b5b612fcc848285612f83565b509392505050565b600082601f830112612fe957612fe8612ecd565b5b8135612ff9848260208601612f92565b91505092915050565b61300b81612bc4565b811461301657600080fd5b50565b60008135905061302881613002565b92915050565b60008060006060848603121561304757613046612b35565b5b600084013567ffffffffffffffff81111561306557613064612b3a565b5b61307186828701612fd4565b935050602061308286828701612ccd565b925050604061309386828701613019565b9150509250925092565b600080604083850312156130b4576130b3612b35565b5b60006130c285828601612d82565b92505060206130d385828601613019565b9150509250929050565b600067ffffffffffffffff8211156130f8576130f7612ed7565b5b61310182612c40565b9050602081019050919050565b600061312161311c846130dd565b612f37565b90508281526020810184848401111561313d5761313c612ed2565b5b613148848285612f83565b509392505050565b600082601f83011261316557613164612ecd565b5b813561317584826020860161310e565b91505092915050565b6000806000806080858703121561319857613197612b35565b5b60006131a687828801612d82565b94505060206131b787828801612d82565b93505060406131c887828801612ccd565b925050606085013567ffffffffffffffff8111156131e9576131e8612b3a565b5b6131f587828801613150565b91505092959194509250565b6000806040838503121561321857613217612b35565b5b600061322685828601612d82565b925050602061323785828601612d82565b9150509250929050565b600081519050919050565b600082825260208201905092915050565b6000819050602082019050919050565b61327681612cac565b82525050565b6000613288838361326d565b60208301905092915050565b6000602082019050919050565b60006132ac82613241565b6132b6818561324c565b93506132c18361325d565b8060005b838110156132f25781516132d9888261327c565b97506132e483613294565b9250506001810190506132c5565b5085935050505092915050565b6000602082019050818103600083015261331981846132a1565b905092915050565b7f4e487b7100000000000000000000000000000000000000000000000000000000600052602260045260246000fd5b6000600282049050600182168061336857607f821691505b60208210810361337b5761337a613321565b5b50919050565b7f4552433732313a20617070726f76616c20746f2063757272656e74206f776e6560008201527f7200000000000000000000000000000000000000000000000000000000000000602082015250565b60006133dd602183612c05565b91506133e882613381565b604082019050919050565b6000602082019050818103600083015261340c816133d0565b9050919050565b7f4552433732313a20617070726f76652063616c6c6572206973206e6f7420746f60008201527f6b656e206f776e6572206f7220617070726f76656420666f7220616c6c000000602082015250565b600061346f603d83612c05565b915061347a82613413565b604082019050919050565b6000602082019050818103600083015261349e81613462565b9050919050565b7f4e4654206e6f74206c6973746564000000000000000000000000000000000000600082015250565b60006134db600e83612c05565b91506134e6826134a5565b602082019050919050565b6000602082019050818103600083015261350a816134ce565b9050919050565b7f5072696365206f66204e4654206e6f7420636f72726563740000000000000000600082015250565b6000613547601883612c05565b915061355282613511565b602082019050919050565b600060208201905081810360008301526135768161353a565b9050919050565b600081905092915050565b50565b600061359860008361357d565b91506135a382613588565b600082019050919050565b60006135b98261358b565b9150819050919050565b7f4661696c656420746f2073656e64204574686572000000000000000000000000600082015250565b60006135f9601483612c05565b9150613604826135c3565b602082019050919050565b60006020820190508181036000830152613628816135ec565b9050919050565b7f4552433732313a2063616c6c6572206973206e6f7420746f6b656e206f776e6560008201527f72206f7220617070726f76656400000000000000000000000000000000000000602082015250565b600061368b602d83612c05565b91506136968261362f565b604082019050919050565b600060208201905081810360008301526136ba8161367e565b9050919050565b7f596f7520617265206e6f7420746865206f776e6572206f662074686973204e4660008201527f5400000000000000000000000000000000000000000000000000000000000000602082015250565b600061371d602183612c05565b9150613728826136c1565b604082019050919050565b6000602082019050818103600083015261374c81613710565b9050919050565b7f4572726f7220696e20706179696e67204c697374696e67204665657300000000600082015250565b6000613789601c83612c05565b915061379482613753565b602082019050919050565b600060208201905081810360008301526137b88161377c565b9050919050565b7f455243373231456e756d657261626c653a206f776e657220696e646578206f7560008201527f74206f6620626f756e6473000000000000000000000000000000000000000000602082015250565b600061381b602b83612c05565b9150613826826137bf565b604082019050919050565b6000602082019050818103600083015261384a8161380e565b9050919050565b7f455243373231456e756d657261626c653a20676c6f62616c20696e646578206f60008201527f7574206f6620626f756e64730000000000000000000000000000000000000000602082015250565b60006138ad602c83612c05565b91506138b882613851565b604082019050919050565b600060208201905081810360008301526138dc816138a0565b9050919050565b7f4e487b7100000000000000000000000000000000000000000000000000000000600052603260045260246000fd5b7f4552433732313a20696e76616c696420746f6b656e2049440000000000000000600082015250565b6000613948601883612c05565b915061395382613912565b602082019050919050565b600060208201905081810360008301526139778161393b565b9050919050565b7f4552433732313a2061646472657373207a65726f206973206e6f74206120766160008201527f6c6964206f776e65720000000000000000000000000000000000000000000000602082015250565b60006139da602983612c05565b91506139e58261397e565b604082019050919050565b60006020820190508181036000830152613a09816139cd565b9050919050565b60008190508160005260206000209050919050565b60006020601f8301049050919050565b600082821b905092915050565b600060088302613a727fffffffffffffffffffffffffffffffffffffffffffffffffffffffffffffffff82613a35565b613a7c8683613a35565b95508019841693508086168417925050509392505050565b6000819050919050565b6000613ab9613ab4613aaf84612cac565b613a94565b612cac565b9050919050565b6000819050919050565b613ad383613a9e565b613ae7613adf82613ac0565b848454613a42565b825550505050565b600090565b613afc613aef565b613b07818484613aca565b505050565b5b81811015613b2b57613b20600082613af4565b600181019050613b0d565b5050565b601f821115613b7057613b4181613a10565b613b4a84613a25565b81016020851015613b59578190505b613b6d613b6585613a25565b830182613b0c565b50505b505050565b600082821c905092915050565b6000613b9360001984600802613b75565b1980831691505092915050565b6000613bac8383613b82565b9150826002028217905092915050565b613bc582612bfa565b67ffffffffffffffff811115613bde57613bdd612ed7565b5b613be88254613350565b613bf3828285613b2f565b600060209050601f831160018114613c265760008415613c14578287015190505b613c1e8582613ba0565b865550613c86565b601f198416613c3486613a10565b60005b82811015613c5c57848901518255600182019150602085019450602081019050613c37565b86831015613c795784890151613c75601f891682613b82565b8355505b6001600288020188555050505b505050505050565b600081905092915050565b6000613ca482612bfa565b613cae8185613c8e565b9350613cbe818560208601612c16565b80840191505092915050565b6000613cd68285613c99565b9150613ce28284613c99565b91508190509392505050565b7f4f776e61626c653a206e6577206f776e657220697320746865207a65726f206160008201527f6464726573730000000000000000000000000000000000000000000000000000602082015250565b6000613d4a602683612c05565b9150613d5582613cee565b604082019050919050565b60006020820190508181036000830152613d7981613d3d565b9050919050565b7f4e487b7100000000000000000000000000000000000000000000000000000000600052601160045260246000fd5b6000613dba82612cac565b91507fffffffffffffffffffffffffffffffffffffffffffffffffffffffffffffffff8203613dec57613deb613d80565b5b600182019050919050565b7f4552433732313a207472616e736665722066726f6d20696e636f72726563742060008201527f6f776e6572000000000000000000000000000000000000000000000000000000602082015250565b6000613e53602583612c05565b9150613e5e82613df7565b604082019050919050565b60006020820190508181036000830152613e8281613e46565b9050919050565b7f4552433732313a207472616e7366657220746f20746865207a65726f2061646460008201527f7265737300000000000000000000000000000000000000000000000000000000602082015250565b6000613ee5602483612c05565b9150613ef082613e89565b604082019050919050565b60006020820190508181036000830152613f1481613ed8565b9050919050565b7f4f776e61626c653a2063616c6c6572206973206e6f7420746865206f776e6572600082015250565b6000613f51602083612c05565b9150613f5c82613f1b565b602082019050919050565b60006020820190508181036000830152613f8081613f44565b9050919050565b7f4552433732313a20617070726f766520746f2063616c6c657200000000000000600082015250565b6000613fbd601983612c05565b9150613fc882613f87565b602082019050919050565b60006020820190508181036000830152613fec81613fb0565b9050919050565b7f4552433732313a207472616e7366657220746f206e6f6e20455243373231526560008201527f63656976657220696d706c656d656e7465720000000000000000000000000000602082015250565b600061404f603283612c05565b915061405a82613ff3565b604082019050919050565b6000602082019050818103600083015261407e81614042565b9050919050565b7f4e487b7100000000000000000000000000000000000000000000000000000000600052601260045260246000fd5b600081519050919050565b600082825260208201905092915050565b60006140db826140b4565b6140e581856140bf565b93506140f5818560208601612c16565b6140fe81612c40565b840191505092915050565b600060808201905061411e6000830187612d41565b61412b6020830186612d41565b6141386040830185612dd7565b818103606083015261414a81846140d0565b905095945050505050565b60008151905061416481612b6b565b92915050565b6000602082840312156141805761417f612b35565b5b600061418e84828501614155565b91505092915050565b7f455243373231456e756d657261626c653a20636f6e736563757469766520747260008201527f616e7366657273206e6f7420737570706f727465640000000000000000000000602082015250565b60006141f3603583612c05565b91506141fe82614197565b604082019050919050565b60006020820190508181036000830152614222816141e6565b9050919050565b7f4552433732313a206d696e7420746f20746865207a65726f2061646472657373600082015250565b600061425f602083612c05565b915061426a82614229565b602082019050919050565b6000602082019050818103600083015261428e81614252565b9050919050565b7f4552433732313a20746f6b656e20616c7265616479206d696e74656400000000600082015250565b60006142cb601c83612c05565b91506142d682614295565b602082019050919050565b600060208201905081810360008301526142fa816142be565b9050919050565b600061430c82612cac565b915061431783612cac565b925082820390508181111561432f5761432e613d80565b5b92915050565b7f4e487b7100000000000000000000000000000000000000000000000000000000600052603160045260246000fdfea26469706673582212203652d035b5811669e2d976005f5f8e0ba65675cd62e6bfc14c31f728d281090664736f6c63430008120033",
  "linkReferences": {},
  "deployedLinkReferences": {}
}